:020000040800F2
:1000000000200020790F0008390200083D02000896
:1000100000000000000000000000000000000000E0
:100020000000000000000000000000004102000885
:10003000000000000000000045020008490200081E
:10004000C90F0008C90F0008C90F0008C90F000830
:10005000C90F0008C90F0008C90F0008C90F000820
:10006000C90F0008C90F0008C90F0008C90F000810
:10007000C90F0008C90F000800000000C90F0008E0
:1000800000000000C90F0008000000000000000090
:10009000C90F000800000000C90F0008C90F0008C0
:1000A000C90F0008C90F0008C90F0008C90F0008D0
:1000B000C90F0008C90F0008C90F0008C90F0008C0
:1000C00010B5064C2378002B07D1054B002B02D02E
:1000D000044800E000BF0123237010BD040000208D
:1000E0000000000018100008084B10B5002B03D0CA
:1000F0000749084800E000BF07480368002B00D10B
:1001000010BD064B002BFBD09847F9E7000000001C
:100110000800002018100008040000200000000063
:10012000002243088B4274D303098B425FD3030A36
:100130008B4244D3030B8B4228D3030C8B420DD349
:10014000FF22090212BA030C8B4202D312120902D7
:1001500065D0030B8B4219D300E0090AC30B8B4215
:1001600001D3CB03C01A5241830B8B4201D38B03C3
:10017000C01A5241430B8B4201D34B03C01A524168
:10018000030B8B4201D30B03C01A5241C30A8B42AB
:1001900001D3CB02C01A5241830A8B4201D38B0296
:1001A000C01A5241430A8B4201D34B02C01A52413A
:1001B000030A8B4201D30B02C01A5241CDD2C309AC
:1001C0008B4201D3CB01C01A524183098B4201D328
:1001D0008B01C01A524143098B4201D34B01C01A13
:1001E000524103098B4201D30B01C01A5241C3088B
:1001F0008B4201D3CB00C01A524183088B4201D3FA
:100200008B00C01A524143088B4201D34B00C01AE5
:100210005241411A00D20146524110467047FFE751
:1002200001B5002000F006F802BDC0460029F7D055
:1002300076E770477047C0467047C046FEE7C04645
:100240007047C0467047C04610B500F0E1F900F0B5
:1002500061F810BD70B5002817DAC0B20F23034053
:10026000083B9B0806339B00114A944663445A6836
:1002700003242040C000FC3425008540AA438901A6
:10028000214081401143596010E08308094DC0337B
:100290009B005C5903221040C000FF2632008240C0
:1002A00094438901314081402143595170BDC0467A
:1002B00000ED00E000E100E001380A4B98420FD861
:1002C000094A506009490B6A1B021B0AC02000063C
:1002D00003430B620023936007331360002000E0A8
:1002E00001207047FFFFFF0010E000E000ED00E09C
:1002F000042805D1054A116804230B43136004E068
:10030000024A136804218B431360704710E000E039
:100310007047C04610B5FFF7FBFF10BDF0B54F4664
:100320004646C0B40023ACE001249C40224000D1EA
:10033000A6E04D68022D01D0122D15D1DF08083737
:10034000BF003D58A94607251D40AD00A8460F2611
:10035000AE40B4464E466546AE43B4460E69454689
:10036000AE40654635433D504D686E1E012E03D9A3
:10037000112D01D0122D11D185685F000326BE40DA
:10038000B543CE68BE40354385604668A6434C6899
:10039000250901242C409C403443446006685F00DA
:1003A00003242500BD40ED432E40B4464E68344042
:1003B000BC40664634430460C46825408C68BC4039
:1003C0002543C5604C68E4005AD5324D6E6B01245C
:1003D00034436C639C08A51CAD002F4EAF59032617
:1003E0001E40B5000F26AE40B743A026F605B0422A
:1003F0000DD02A4EB0420CD0294EB0420BD0294E1F
:10040000B0420AD0284EB04209D1052608E00026A5
:1004100006E0012604E0022602E0032600E00626AC
:10042000AE4035003D430234A4001B4EA5511F4C85
:100430002568D44326002E404F68FF0301D515439D
:100440002E001A4D2E606D682E0026404F68BF03A7
:1004500001D515432E00154D6E60AD682E00264067
:100460004F68FF0201D515432E00104DAE60ED68B8
:100470002C404E68B60201D52A4314000B4AD460C2
:1004800001330A681400DC4000D04DE70CBC9046F4
:100490009946F0BD001002400000014000040050E9
:1004A00000080050000C0050001C005000040140E7
:1004B000002A01D0816100E08162704743695940A0
:1004C0004161704730B587B00D4BDA6A0124224391
:1004D000DA62DB6A23400093009BA025ED05002231
:1004E00020212800FFF7E4FF20230193029400233A
:1004F0000393049301A92800FFF710FF07B030BD54
:1005000000100240FEE7C04600B595B0224A1168CF
:10051000224B0B40802109010B43136002230693F9
:10052000012209920F320A92109300231193802323
:10053000DB0212938023DB03139306A800F0C8F8B4
:10054000002803D088211648FFF7DCFF0F23019312
:100550000C3B02930023039304930593012101A80C
:1005600000F0DCFB002803D096210D48FFF7CAFFFE
:1005700000F0AEFCFA218900FFF7D2FDFFF79CFEE8
:100580000420FFF7B5FE0022002101204042FFF7C2
:1005900061FE15B000BDC04600700040FFE7FFFFE0
:1005A0003010000810B500F023F8FFF7ADFFFFF79B
:1005B00089FF2021A020C005FFF780FFFA2040001E
:1005C00000F034F8F5E7C04610B50400074B186892
:1005D000FA218900FFF7A4FDFFF76EFE002221003B
:1005E00001204042FFF736FE002010BD0000002031
:1005F00010B5064A116840230B4313600020FFF733
:10060000E3FF00F099FC002010BDC046002002402E
:10061000024A1368013313607047C046200000206F
:10062000014B18687047C0462000002010B582B00A
:100630000190FFF7F5FF0400FFF7F2FF001B019B9D
:100640009842F9D302B010BD10B51D4BDB68F02203
:100650001A4222D11A4B9B6BDB0005D5194B1A6845
:10066000C0235B0113400EE0154A936B80214905BE
:100670000B439363134B1968C0235B010B40946BCE
:10068000114921409163C0225201934207D1C023F6
:100690001B02984205D0002004E0002002E0002068
:1006A00000E00120094A136801218B4303431360D2
:1006B00013680B40984201D0012000E0002010BDDB
:1006C0000010024000700040FFFFFFEF00200240DA
:1006D00070B582B004000368DB0761D5C84BDB68E6
:1006E0000C221340082B08D0C54BDB6813400C2BA1
:1006F0000BD1C34BDB68DB0307D5C14B1B689B03E6
:100700004ED56368002B4BD17AE263688022520297
:10071000934206D1BA4A1368802149020B43136001
:100720001EE0A022D20293420BD1B54B1A68802161
:10073000C9020A431A601A68802149020A431A60F2
:100740000EE0AF4B1968AF4A0A401A601968802260
:1007500052020A400192019A1968AB4A0A401A6093
:100760006368002B0ED0FFF75BFF050005E0FFF785
:1007700057FF401B642800D944E2A14B1B689B0330
:10078000F5D50DE0FFF74CFF050005E0FFF748FF4A
:10079000401B642800D937E2994B1B689B03F5D4B2
:1007A00023689B0752D5964BDB680C221340042B21
:1007B00008D0934BDB6813400C2B14D1904BDB68B3
:1007C000DB0310D48E4B1B685B0703D5E368012B5A
:1007D00000D01BE28A494A688C4B134022691202FE
:1007E00013434B6032E0E268002A1CD084490B6856
:1007F0000920834313430B60FFF712FF050005E058
:10080000FFF70EFF401B022800D901E27C4B1B685A
:100810005B07F5D57A494A687C4B1340226912027E
:1008200013434B6012E0764A136801218B43136037
:10083000FFF7F6FE050005E0FFF7F2FE401B022879
:1008400000D9E7E16E4B1B685B07F5D42368DB0634
:1008500000D488E06A4BDB680C221A424AD1684B0C
:100860001B689B0503D5E369002B00D1D4E1606AC6
:10087000634B5A68E0231B021340984213D9FFF7D9
:10088000E3FE002800D0C9E15D494A68604B13408F
:10089000626A13434B604B681B021B0A226A1206F2
:1008A00013434B6012E056494A68594B13401843B2
:1008B00048604B681B021B0A226A120613434B60F6
:1008C000606AFFF7C1FE002800D0A9E1636A5A0BF5
:1008D000013280231B029340494AD26812090F213A
:1008E0000A404C498A5CD3404B4A13600020FFF712
:1008F0006BFE38E0E369002B22D0414A1368802167
:1009000049000B431360FFF78BFE050005E0FFF77E
:1009100087FE401B022800D984E1394B1B689B05E8
:10092000F5D537494A683A4B1340626A13434B6026
:100930004B681B021B0A226A120613434B6012E02B
:100940002F4A1168354B0B401360FFF769FE050015
:1009500005E0FFF765FE401B022800D964E1284B43
:100960001B689B05F5D423681B0729D56369002BF9
:1009700013D0234A116D01230B431365FFF750FE7B
:10098000050005E0FFF74CFE401B022800D94DE1B1
:100990001B4B1B6D9B07F5D512E0194A136D012106
:1009A0008B431365FFF73CFE050005E0FFF738FEBB
:1009B000401B022800D93BE1114B1B6D9B07F5D46E
:1009C00023685B0700D491E00D4B9B6BDB0007D4E1
:1009D0000B4A936B802149050B439363012500E08B
:1009E00000250F4B1B68DB0526D40D4A13688021B8
:1009F00049000B431360FFF713FE060018E0C046E2
:100A000000100240FFFFFEFFFFFFFBFFFFE0FFFFC4
:100A1000FF1FFFFF3C10000800000020FFFEFFFF4B
:100A200000700040FFF7FCFD801B642800D901E145
:100A30008B4B1B68DB05F5D5A368802252009342DF
:100A400006D1884A136D802149000B43136524E0C9
:100A5000002B09D1834B196D834A0A401A65196D21
:100A6000824A0A401A6518E0A022D20093420BD1B4
:100A70007C4B1A6D8021C9000A431A651A6D8021CA
:100A800049000A431A6508E0764B196D764A0A4018
:100A90001A65196D754A0A401A65A368002B0FD0B4
:100AA000FFF7BEFD060006E0FFF7BAFD801B704BA6
:100AB000984200D9C0E06B4B1B6D9B05F4D50EE04E
:100AC000FFF7AEFD060006E0FFF7AAFD801B684BAE
:100AD000984200D9B2E0634B1B6D9B05F4D4012D05
:100AE00004D1604A916B634B0B40936323689B0670
:100AF00036D5A369002B1CD05A4B996801221143AB
:100B00009960596B0A435A635B4A136A80218901D1
:100B10000B431362FFF784FD050005E0FFF780FD3E
:100B2000401B022800D98BE04E4B9B689B07F5D5F4
:100B300016E04C4A936801218B4393604E4A116A38
:100B40004E4B0B401362FFF76BFD050004E0FFF70F
:100B500067FD401B022875D8424B9B689B07F6D463
:100B6000A36A002B70D03F4AD2680C210A400C2A9D
:100B70006CD0022B30D13B4A1168414B0B401360C3
:100B8000FFF74EFD050004E0FFF74AFD401B022879
:100B90005ED8344B1B689B01F6D43249C868394B88
:100BA0001840E36A226B1343626B13430343CB6029
:100BB0000B688022520413430B60FFF731FD0400E1
:100BC00004E0FFF72DFD001B022843D8254B1B68CE
:100BD0009B01F6D5002040E0224A1168284B0B40CB
:100BE0001360FFF71DFD040004E0FFF719FD001B73
:100BF000022831D81B4B1B689B01F6D400202CE047
:100C000001202AE0032028E0032026E0012024E040
:100C1000032022E0032020E001201EE001201CE050
:100C200001201AE0032018E0032016E0032014E05E
:100C3000032012E0032010E003200EE003200CE06C
:100C400003200AE0032008E0002006E0012004E081
:100C5000032002E0032000E0032002B070BDC04684
:100C60000070004000100240FFFEFFFFFFFBFFFF8F
:100C700088130000FFFFFFEF00000140FFDFFFFFD0
:100C8000FFFFFFFEFFFF02FF10B51F4BD9680C23CB
:100C90000B40082B33D00C2B07D0042B25D11A4B3B
:100CA0001B68DB062DD519482CE08B0C0F22134056
:100CB000174AD25C890D032319400131124BDB68BE
:100CC000DB0304D513485043FFF72AFA1AE00E4B12
:100CD0001B68DB0604D50D485043FFF721FA11E0ED
:100CE0000D485043FFF71CFA0CE0074B5B685B0BA9
:100CF00007221340013380200002984002E005489B
:100D000000E0054810BDC0460010024000093D004B
:100D10004C10000800127A000024F40070B50400A2
:100D20000D00644B1B68012213408B420AD2614ABA
:100D3000136801218B432B43136013680B409D42C2
:100D400000D0A2E023689B0706D55B4AD368F02158
:100D50008B43A1680B43D3602368DB075FD56368CF
:100D6000022B04D1544A1268920313D48FE0032B50
:100D700004D1514A126892010CD48AE0012B04D1AB
:100D80004D4A1268520705D485E04B4A1268920515
:100D900000D482E04849CA68032082431343CB60F1
:100DA000FFF73EFC06006368022B0DD105E0FFF75C
:100DB00037FC801B414B984271D83F4BDB680C22BB
:100DC0001340082BF3D12AE0032B0DD105E0FFF7E8
:100DD00027FC801B394B984263D8374BDB680C22C9
:100DE00013400C2BF3D11AE0012B13D105E0FFF7D0
:100DF00017FC801B314B984255D82F4BDB680C22D7
:100E00001340042BF3D10AE0FFF70AFC801B2B4BA5
:100E100098424AD8284BDB680C221A42F4D1254B61
:100E20001B68012213409D4209D2224A1368012106
:100E30008B432B43136013680B409D4237D12368CB
:100E40005B0706D51C4AD1681D4B0B40E1680B437C
:100E5000D36023681B0707D51749CA68194B13408D
:100E60002269D2001343CB60FFF70EFF124BDB6801
:100E70001B090F221340144AD35CD840134B18604F
:100E80000020FFF7A1FB002012E0012010E001206C
:100E90000EE001200CE001200AE0012008E0032020
:100EA00006E0032004E0032002E0032000E001202C
:100EB00070BDC046002002400010024088130000B0
:100EC000FFF8FFFFFFC7FFFF3C10000800000020F5
:100ED000014B18687047C04600000020104B1A688C
:100EE000802149000A431A60D9680E4A0A40DA6034
:100EF00019680D4A0A401A609A6801218A439A606B
:100F000019680A4A0A401A60D968094A0A40DA6030
:100F100000221A6180221205064B9A607047C04673
:100F2000001002400C40FF88F6FFF6FEFFFFFBFFBB
:100F3000FFFF02FF00ED00E010B50E4B596B0122E0
:100F40000A435A639A6B802149050A439A63002237
:100F5000002105204042FFF77DF9002200210220F8
:100F60004042FFF777F90022002101204042FFF7BD
:100F700071F910BD001002400D488546002103E0C4
:100F80000C4B5B58435004310B480C4B42189A42AF
:100F9000F6D30B4A02E0002313600432094B9A4255
:100FA000F9D3FFF79BFF00F011F8FFF7FBFAFEE71C
:100FB0000020002060100008000000200400002035
:100FC0000400002024000020FEE700000E4B70B556
:100FD00000251E000D4CE41AA410A54204D0AB005D
:100FE000F35898470135F8E700F016F8084B00254C
:100FF0001E00084CE41AA410A54204D0AB00F3581C
:1010000098470135F8E770BD5810000858100008DF
:10101000581000085C100008F8B5C046F8BC08BCC1
:101020009E467047F8B5C046F8BC08BC9E4670475F
:101030005372632F6D61696E2E6300000000000023
:101040000000000001020304060708090304060863
:081050000C1018203000000014
:04105800E9000008A3
:04105C00C1000008C7
:0410600080841E006A
:0400000508000F7967
:00000001FF
